{
    "contractName": "Lottery",
    "abi": [
        {
            "inputs": [],
            "stateMutability": "nonpayable",
            "type": "constructor"
        },
        {
            "inputs": [],
            "name": "enter",
            "outputs": [],
            "stateMutability": "payable",
            "type": "function"
        },
        {
            "inputs": [],
            "name": "manager",
            "outputs": [
                {
                    "internalType": "address",
                    "name": "",
                    "type": "address"
                }
            ],
            "stateMutability": "view",
            "type": "function"
        },
        {
            "inputs": [],
            "name": "pickWinner",
            "outputs": [],
            "stateMutability": "nonpayable",
            "type": "function"
        }
    ],
    "bytecode": "608060405234801561001057600080fd5b50600080546001600160a01b03191633179055610300806100326000396000f3fe6080604052600436106100345760003560e01c8063481c6a75146100395780635d495aea14610075578063e97dcb621461008c575b600080fd5b34801561004557600080fd5b50600054610059906001600160a01b031681565b6040516001600160a01b03909116815260200160405180910390f35b34801561008157600080fd5b5061008a610094565b005b61008a61013b565b6000546001600160a01b031633146100ab57600080fd5b6001546000906100b9610192565b6100c39190610242565b9050600181815481106100d8576100d8610264565b60009182526020822001546040516001600160a01b03909116914780156108fc02929091818181858888f19350505050158015610119573d6000803e3d6000fd5b506040805160008152602081019182905251610137916001916101c8565b5050565b662386f26fc1000034101561014f57600080fd5b6001805480820182556000919091527fb10e2d527612073b26eecdfd717e6a320cf44b4afac2b0732d9fcbe2b7fa0cf60180546001600160a01b03191633179055565b6000444260016040516020016101aa9392919061027a565b6040516020818303038152906040528051906020012060001c905090565b82805482825590600052602060002090810192821561021d579160200282015b8281111561021d57825182546001600160a01b0319166001600160a01b039091161782556020909201916001909101906101e8565b5061022992915061022d565b5090565b5b80821115610229576000815560010161022e565b60008261025f57634e487b7160e01b600052601260045260246000fd5b500690565b634e487b7160e01b600052603260045260246000fd5b838152600060208481840152604083018454856000528260002060005b828110156102bc5781546001600160a01b031684529284019260019182019101610297565b50919897505050505050505056fea2646970667358221220e6e24f7bb88e6d5c8e3f3ac4a751632c0d24f12c23c0ad83ded6ee965b64e96164736f6c634300080a0033",
    "sourcePath": "/Users/gabrielghiuzan/Projects/learning-stuff/Ethereum/lottery/contracts/Lottery.sol",
    "compiler": {
        "name": "solc",
        "version": "0.8.10+commit.fc410830"
    },
    "functionHashes": {
        "enter()": "e97dcb62",
        "manager()": "481c6a75",
        "pickWinner()": "5d495aea"
    },
    "gasEstimates": {
        "creation": {
            "codeDepositCost": "153600",
            "executionCost": "24431",
            "totalCost": "178031"
        },
        "external": {
            "enter()": "48638",
            "manager()": "2303",
            "pickWinner()": "infinite"
        },
        "internal": {
            "random()": "infinite"
        }
    }
}